S01C0000447269766572732041746D6567613332204E54492E737265634A
S11300000C942A000C9434000C9434000C943400A6
S11300100C9434000C9434000C9434000C9434008C
S11300200C9434000C9434000C9434000C9434007C
S11300300C9434000C9434000C9434000C9434006C
S11300400C9434000C9434000C9434000C9434005C
S11300500C94340011241FBECFE5D8E0DEBFCDBF21
S11300600E9406010C94D8020C94000040E00E9407
S11300701E01833029F091E0813019F090E001C035
S113008092E0892F08950E946702833029F091E05D
S1130090813019F090E001C092E0892F0895CF9348
S11300A0C82F41E065E081E00E941E0141E066E066
S11300B081E00E941E0141E062E080E00E941E0196
S11300C041E063E080E00E941E01C23009F44BC0AD
S11300D030F4CC2349F0C13009F45AC06DC0C330A8
S11300E0C1F0C43059F168C040E065E081E00E948D
S11300F0CC0140E066E081E00E94CC0140E062E097
S113010080E00E94CC0140E063E080E00E94CC01EA
S113011053C040E065E081E00E94CC0141E066E02C
S113012081E00E94CC0141E062E080E00E94CC01C9
S113013041E063E080E00E94CC013EC041E065E024
S113014081E00E94CC0140E066E081E00E94CC01A5
S113015041E062E080E00E94CC0141E063E080E0A5
S11301600E94CC0129C041E065E081E00E94CC01FD
S113017041E066E081E00E94CC0140E062E080E082
S11301800E94CC0141E063E080E00E94CC0114C0F5
S113019041E065E081E00E94CC0141E066E081E05D
S11301A00E94CC0141E062E080E00E94CC0140E08A
S11301B063E080E00E94CC0141E065E081E00E94C0
S11301C01E0141E066E081E00E941E0141E062E020
S11301D080E00E941E0141E063E080E00E941E0175
S11301E041E060E081E00E941E0141E061E081E0C5
S11301F00E941E0141E062E081E00E941E0141E094
S113020064E081E00E941E01CF910895CF93DF93B3
S11302101F92CDB7DEB781E00E944F0067E083E014
S11302200E9436001982AE014F5F5F4F67E083E0A2
S11302300E94430089818823B1F3FFCF813059F1B3
S113024038F0823009F44AC0833009F46AC08AC0A5
S1130250413079F4683008F087C02AB381E090E037
S113026002C0880F991F6A95E2F7822B8ABB80E04F
S1130270089541117BC0683008F07AC02AB381E048
S113028090E002C0880F991F6A95E2F78095822357
S11302908ABB80E00895413079F4683008F06AC080
S11302A027B381E090E002C0880F991F6A95E2F7B6
S11302B0822B87BB80E0089541115EC0683008F04E
S11302C05DC027B381E090E002C0880F991F6A9552
S11302D0E2F78095822387BB80E00895413079F46A
S11302E0683008F04DC024B381E090E002C0880F6C
S11302F0991F6A95E2F7822B84BB80E0089541112F
S113030041C0683008F040C024B381E090E002C0EE
S1130310880F991F6A95E2F78095822384BB80E059
S11303200895413071F4683088F521B381E090E09C
S113033002C0880F991F6A95E2F7822B81BB80E087
S11303400895411125C0683028F521B381E090E07B
S113035002C0880F991F6A95E2F78095822381BBBA
S113036080E0089583E0089581E0089582E008958F
S113037081E0089581E0089582E0089581E0089580
S113038081E0089582E0089581E0089581E0089570
S113039082E0089581E00895813041F138F082309F
S11303A009F444C0833009F461C07FC0683008F0A8
S11303B07EC0413061F42BB381E090E002C0880F2D
S11303C0991F6A95E2F7822B8BBB80E00895411157
S11303D070C02BB381E090E002C0880F991F6A952A
S11303E0E2F7809582238BBB80E00895683008F0A3
S11303F062C0413061F428B381E090E002C0880F0C
S1130400991F6A95E2F7822B88BB80E00895411119
S113041054C028B381E090E002C0880F991F6A9508
S1130420E2F78095822388BB80E00895683008F065
S113043046C0413061F425B381E090E002C0880FEA
S1130440991F6A95E2F7822B85BB80E008954111DC
S113045038C025B381E090E002C0880F991F6A95E7
S1130460E2F78095822385BB80E00895683058F5D3
S1130470413061F422B381E090E002C0880F991FFB
S11304806A95E2F7822B82BB80E0089541111DC07A
S113049022B381E090E002C0880F991F6A95E2F7C9
S11304A08095822382BB80E0089583E0089581E0F3
S11304B0089584E0089581E0089584E0089581E03A
S11304C0089584E0089581E0089584E008958130DA
S11304D0F9F030F08230A1F1833009F448C05EC0F5
S11304E0683008F05DC029B381E090E0062E02C0B8
S11304F0880F991F0A94E2F730E08223932302C005
S1130500959587956A95E2F7FA01808380E00895CE
S1130510683008F047C026B381E090E0062E02C0A0
S1130520880F991F0A94E2F730E08223932302C0D4
S1130530959587956A95E2F7FA01808380E008959E
S1130540683090F523B381E090E0062E02C0880F56
S1130550991F0A94E2F730E08223932302C0959511
S113056087956A95E2F7FA01808380E00895683000
S1130570E8F420B381E090E0062E02C0880F991FB2
S11305800A94E2F730E08223932302C0959587957D
S11305906A95E2F7FA01808380E0089583E0089584
S11305A081E0089581E0089581E0089581E008954F
S10705B0F894FFCFE9
S9030000FC
