S01C0000447269766572732041746D6567613332204E54492E737265634A
S11300000C942A000C9400040C9429040C945204BB
S11300100C9447000C9447000C9447000C94470040
S11300200C9447000C9447000C9447000C94470030
S11300300C9447000C9447000C9447000C94470020
S11300400C9447000C9447000C9447000C94470010
S11300500C94470011241FBECFE5D8E0DEBFCDBF0E
S113006010E0A0E6B0E0E6EDFEE002C005900D92DF
S1130070A636B107D9F720E0A6E6B0E001C01D928C
S1130080AE36B207E1F70E94B7010C9469070C94ED
S113009000002FEF83EC99E0215080409040E1F77D
S11300A000C000000E94520164E080E00E94AB01A5
S11300B08091660090916700892B81F480916000A3
S11300C0909161000E9471018091600090916100A3
S11300D0019690936100809360000FC0809160004E
S11300E0909161000E947101809160009091610083
S11300F001979093610080936000809160009091DB
S113010061008A30910539F481E090E090936700B2
S1130110809366000895019721F41092670010926D
S113012066000895CF93DF9300D000D0CDB7DEB73B
S113013064E080E00E949E010E94150181E08983B1
S113014083E08A8389E490E09C838B83CE010196CB
S11301500E944F030F900F900F900F90DF91CF915B
S11301600895089541E062E080E00E946A028FE908
S11301709FE00197F1F700C0000040E062E080E0FA
S11301800E946A028FE99FE00197F1F700C0000026
S11301900895CF93C82F84FB442740F960E081E0A1
S11301A00E946A02C5FB442740F961E081E00E9495
S11301B06A02C6FB442740F962E081E00E946A02B9
S11301C04C2F441F4427441F64E081E00E946A02CC
S11301D00E94B2004C2F417060E081E00E946A02EC
S11301E0C1FB442740F961E081E00E946A02C2FB3E
S11301F0442740F962E081E00E946A02C3FB44277D
S113020040F964E081E00E946A020E94B200CF914A
S11302100895CF93C82F40E063E080E00E946A0213
S11302208C2F0E94C900CF91089541E063E080E0E3
S11302300E94BC0141E062E080E00E94BC0141E018
S113024060E081E00E94BC0141E061E081E00E9445
S1130250BC0141E062E081E00E94BC0141E064E055
S113026081E00E94BC012FEF86E791E0215080409D
S11302709040E1F700C0000082E00E94090188E29A
S11302800E94090181E00E9409018CE00E94090199
S11302908FE99FE00197F1F700C0000086E00E941B
S11302A00901089581E00E9409010895CF93C82FA0
S11302B041E063E080E00E946A028C2F0E94C90042
S11302C0CF910895CF93DF93EC018881882331F097
S11302D021960E94560189918111FBCFDF91CF9124
S11302E008950F931F93CF93DF93CDB7DEB727976E
S11302F00FB6F894DEBF0FBECDBF9F938F9382E6F7
S113030090E09F938F938E010F5F1F4F1F930F9366
S11303100E947F04C8010E9462010F900F900F9009
S11303200F900F900F9027960FB6F894DEBF0FBE74
S1130330CDBFDF91CF911F910F91089541E00E94AD
S1130340BC01813021F0833021F080E0089581E008
S1130350089582E008950E940503813021F08330DE
S113036021F080E0089581E0089582E008950E94DC
S113037092000E94B100FDCF813059F138F08230F3
S113038009F44AC0833009F46AC08AC0413079F460
S1130390683008F087C02AB381E090E002C0880F7B
S11303A0991F6A95E2F7822B8ABB80E00895411178
S11303B07BC0683008F07AC02AB381E090E002C0C4
S11303C0880F991F6A95E2F7809582238ABB80E0A3
S11303D00895413079F4683008F06AC027B381E0A9
S11303E090E002C0880F991F6A95E2F7822B87BBC1
S11303F080E0089541115EC0683008F05DC027B305
S113040081E090E002C0880F991F6A95E2F7809519
S1130410822387BB80E00895413079F4683008F086
S11304204DC024B381E090E002C0880F991F6A9503
S1130430E2F7822B84BB80E00895411141C068300B
S113044008F040C024B381E090E002C0880F991FF7
S11304506A95E2F78095822384BB80E00895413059
S113046071F4683088F521B381E090E002C0880F10
S1130470991F6A95E2F7822B81BB80E008954111B0
S113048025C0683028F521B381E090E002C0880FD0
S1130490991F6A95E2F78095822381BB80E00895D5
S11304A083E0089581E0089582E0089581E008954D
S11304B081E0089582E0089581E0089581E008953F
S11304C082E0089581E0089581E0089582E008952E
S11304D081E00895813041F138F0823009F444C05C
S11304E0833009F461C07FC0683008F07EC04130B9
S11304F061F42BB381E090E002C0880F991F6A95E4
S1130500E2F7822B8BBB80E00895411170C02BB3BE
S113051081E090E002C0880F991F6A95E2F7809508
S113052082238BBB80E00895683008F062C04130BC
S113053061F428B381E090E002C0880F991F6A95A6
S1130540E2F7822B88BB80E00895411154C028B3A0
S113055081E090E002C0880F991F6A95E2F78095C8
S1130560822388BB80E00895683008F046C041309B
S113057061F425B381E090E002C0880F991F6A9569
S1130580E2F7822B85BB80E00895411138C025B382
S113059081E090E002C0880F991F6A95E2F7809588
S11305A0822385BB80E00895683058F5413061F4BA
S11305B022B381E090E002C0880F991F6A95E2F7A8
S11305C0822B82BB80E0089541111DC022B381E0DB
S11305D090E002C0880F991F6A95E2F78095822304
S11305E082BB80E0089583E0089581E0089584E06B
S11305F0089581E0089584E0089581E0089584E0F9
S1130600089581E0089584E008958130A1F028F0F0
S11306108230F9F0833059F138C06830C0F52BB31B
S113062081E090E002C0880F991F6A95E2F7822763
S11306308BBB80E00895683060F528B381E090E0DA
S113064002C0880F991F6A95E2F7822788BB80E071
S11306500895683000F525B381E090E002C0880F6A
S1130660991F6A95E2F7822785BB80E00895683078
S1130670A0F422B381E090E002C0880F991F6A952C
S1130680E2F7822782BB80E0089583E0089581E049
S1130690089581E0089581E0089581E00895CF935D
S11306A0DF93EC010E947B048881811106C040E045
S11306B062E083E00E94BC018FC0813031F440E0ED
S11306C063E083E00E94BC0187C0823009F076C0F9
S11306D040E062E081E00E94BC017EC0898181111A
S11306E007C085B78E7F85BF85B78D7F85BF79C0ED
S11306F0813039F485B7816085BF85B78D7F85BF2B
S113070070C0823039F485B78E7F85BF85B782602B
S113071085BF67C0833009F068C085B7816085BF35
S113072085B7826085BF5DC0813031F589818111D3
S113073007C085B78B7F85BF85B7877F85BF51C0CD
S1130740813039F485B7846085BF85B7877F85BFDD
S113075048C0823039F485B78B7F85BF85B7886000
S113076085BF3FC0833009F042C085B7846085BF30
S113077085B7886085BF35C08230D9F589818230DC
S113078021F484B78F7B84BF2CC08330A1F584B758
S1130790806484BF26C08BB780648BBF80E011C0A7
S11307A0813029F48BB780688BBF80E00AC0823027
S11307B039F48BB780628BBF80E003C081E001C055
S11307C081E02A813B81E881F0E0EE0FFF1FE859C8
S11307D0FF4F3183208311C08881882309F47ECFA1
S11307E0A3CF88818111DCCFD6CF82E0EACF82E02B
S11307F0E8CF81E0E6CF82E0E4CFDF91CF910895A6
S11308001F920F920FB60F9211242F933F934F9381
S11308105F936F937F938F939F93AF93BF93EF9364
S1130820FF93E0916800F0916900309709F0099511
S1130830FF91EF91BF91AF919F918F917F916F91B4
S11308405F914F913F912F910F900FBE0F901F908A
S113085018951F920F920FB60F9211242F933F9366
S11308604F935F936F937F938F939F93AF93BF93B4
S1130870EF93FF93E0916A00F0916B00309709F0D9
S11308800995FF91EF91BF91AF919F918F917F91C6
S11308906F915F914F913F912F910F900FBE0F90E9
S11308A01F9018951F920F920FB60F9211242F9339
S11308B03F934F935F936F937F938F939F93AF93E4
S11308C0BF93EF93FF93E0916C00F0916D0030972C
S11308D009F00995FF91EF91BF91AF919F918F918D
S11308E07F916F915F914F913F912F910F900FBE28
S11308F00F901F9018958FB780688FBF0895AEE052
S1130900B0E0E5E8F4E00C9440070D891E8986E028
S11309108C831A8309838FEF9FE79E838D83AE01B7
S1130920475E5F4F6F89788DCE0101960E94A104C6
S1130930EF81F885E00FF11F10822E96E4E00C940D
S11309405C07ABE0B0E0E7EAF4E00C9432076C013A
S11309507B018A01FC0117821682838181FFCCC14D
S1130960CE0101963C01F6019381F70193FD859137
S113097093FF81917F01882309F4BAC1853239F448
S113098093FD859193FF81917F01853229F4B6010E
S113099090E00E949806E7CF912C212C312CFFE1A6
S11309A0F315D8F08B3279F038F4803279F0833251
S11309B0A1F4232D20611DC08D3261F0803369F4D0
S11309C0232D216016C0832D8260382EE32DE46030
S11309D03E2E2AC0F32DF8601DC037FC2DC020ED3B
S11309E0280F2A3040F08E32B9F436FC81C1232D11
S11309F02064322E19C036FE06C08AE0989E200D6F
S1130A001124922E11C0EAE02E9E200D1124222ED4
S1130A10F32DF0623F2E08C08C3621F4832D8068BC
S1130A20382E02C0883641F4F70193FD859193FF77
S1130A3081917F018111B3CF982F9F7D955493307D
S1130A4028F40C5F1F4F9FE399830DC0833631F068
S1130A50833771F0833509F059C021C0F8018081D2
S1130A6089830E5F1F4F88248394912C530113C0F4
S1130A702801F2E04F0E511CF801A080B18036FE2F
S1130A8003C0692D70E002C06FEF7FEFC5010E94C3
S1130A908D064C018201F32DFF773F2E16C02801ED
S1130AA022E0420E511CF801A080B18036FE03C042
S1130AB0692D70E002C06FEF7FEFC5010E948206CE
S1130AC04C01F32DF0683F2E820133FC1BC0822DB4
S1130AD090E088169906B0F4B60180E290E00E9496
S1130AE098062A94F4CFF50137FC859137FE81915D
S1130AF05F01B60190E00E94980621102A9421E03B
S1130B00821A91088114910471F7E8C0843611F0B7
S1130B10893641F5F80137FE07C060817181828111
S1130B2093810C5F1F4F08C060817181072E000CF8
S1130B30880B990B0E5F1F4FF32DFF763F2E97FF07
S1130B4009C090958095709561957F4F8F4F9F4F09
S1130B50F0683F2E2AE030E0A3010E94D406882EDC
S1130B60861845C0853731F4232D2F7EB22E2AE016
S1130B7030E025C0932D997FB92E8F36C1F018F43B
S1130B80883579F0B5C0803719F0883721F0B0C0C6
S1130B90E92FE061BE2EB4FE0DC0FB2DF460BF2E24
S1130BA009C034FE0AC0292F2660B22E06C028E0F0
S1130BB030E005C020E130E002C020E132E0F8017D
S1130BC0B7FE07C060817181828193810C5F1F4FE2
S1130BD006C06081718180E090E00E5F1F4FA30129
S1130BE00E94D406882E8618FB2DFF773F2E36FEF2
S1130BF00DC0232D2E7FA22E891458F434FE0BC071
S1130C0032FC09C0832D8E7EA82E05C0B82CA32CDF
S1130C1003C0B82C01C0B92CA4FE0FC0FE01E80D1E
S1130C20F11D8081803321F49A2D997EA92E09C06B
S1130C30A2FE06C0B394B39404C08A2D867809F04A
S1130C40B394A3FC11C0A0FE06C0B21488F4280C0F
S1130C50922C9B180EC0B21460F4B60180E290E0AE
S1130C600E949806B394F7CFB21418F42B1802C05C
S1130C70982C212CA4FE10C0B60180E390E00E94C1
S1130C809806A2FE17C0A1FC03C088E790E002C04A
S1130C9088E590E0B6010CC08A2D867859F0A1FE53
S1130CA002C08BE201C080E2A7FC8DE2B60190E0B5
S1130CB00E949806891438F4B60180E390E00E94FB
S1130CC098069A94F7CF8A94F301E80DF11D808178
S1130CD0B60190E00E9498068110F5CF222009F415
S1130CE042CEB60180E290E00E9498062A94F6CFA4
S1130CF0F6018681978102C08FEF9FEF2B96E2E188
S1130D000C944E07FC010590615070400110D8F717
S1130D10809590958E0F9F1F0895FC01615070403F
S1130D2001900110D8F7809590958E0F9F1F08951C
S1130D300F931F93CF93DF93FB01238121FD03C006
S1130D408FEF9FEF2CC022FF16C04681578124816C
S1130D5035814217530744F4A081B1819D012F5F6F
S1130D603F4F318320838C93268137812F5F3F4F00
S1130D703783268314C08B01EC01FB010084F185C9
S1130D80E02D0995892BE1F6D80116968D919C9159
S1130D901797019617969C938E931697CE01DF9121
S1130DA0CF911F910F910895FA01AA27283051F18C
S1130DB0203181F1E8946F936E7F6E5F7F4F8F4F88
S1130DC09F4FAF4FB1E03ED0B4E03CD0670F781FE7
S1130DD0891F9A1FA11D680F791F8A1F911DA11DCC
S1130DE06A0F711D811D911DA11D20D009F4689405
S1130DF03F912AE0269F11243019305D3193DEF6AD
S1130E00CF010895462F4770405D4193B3E00FD062
S1130E10C9F7F6CF462F4F70405D4A3318F0495D4D
S1130E2031FD4052419302D0A9F7EACFB4E0A69530
S1130E309795879577956795BA95C9F70097610552
S1130E40710508959B01AC010A2E069457954795A8
S1130E5037952795BA95C9F7620F731F841F951F9D
S1130E60A01D08952F923F924F925F926F927F92AE
S1130E708F929F92AF92BF92CF92DF92EF92FF92A6
S1130E800F931F93CF93DF93CDB7DEB7CA1BDB0B52
S1130E900FB6F894DEBF0FBECDBF09942A883988F7
S1130EA048885F846E847D848C849B84AA84B984FE
S1130EB0C884DF80EE80FD800C811B81AA81B9810A
S1130EC0CE0FD11D0FB6F894DEBF0FBECDBFED011E
S1090ED00895F894FFCF21
S1090ED601002564000088
S9030000FC
